<!-- Stable asset version (for cache busting without full-site churn)--><!DOCTYPE html><html lang="zh-cn"><head><title>如何开发一个比特币符文（Runes）协议</title><meta http-equiv="content-type" content="text/html; charset=utf-8"><meta name="viewport" content="width=device-width, initial-scale=1.0"><!-- SEO basics--><meta name="description"><!-- Open Graph & Twitter--><link rel="canonical" href="https://crazy.smallyu.net/2025/07/15/如何开发一个比特币符文（Runes）协议/"><meta property="og:title" content="如何开发一个比特币符文（Runes）协议"><meta property="og:type" content="article"><meta property="og:url" content="https://crazy.smallyu.net/2025/07/15/如何开发一个比特币符文（Runes）协议/"><meta property="og:site_name" content="smallyu的博客（疯狂版）"><meta name="twitter:card" content="summary_large_image"><!-- Browser UI color--><meta name="theme-color" media="(prefers-color-scheme: light)" content="#ffffff"><meta name="theme-color" media="(prefers-color-scheme: dark)" content="#0f1115"><link rel="apple-touch-icon" sizes="180x180" href="/apple-touch-icon.png"><link rel="icon" type="image/png" sizes="32x32" href="/favicon-32x32.png"><link rel="icon" type="image/png" sizes="16x16" href="/favicon-16x16.png"><link rel="manifest" href="/site.webmanifest"><!-- stylesheets--><!-- Use a stable, configurable asset version to prevent full-site churn on every build.--><!-- Set `asset_version` in theme _config.yml when you actually change CSS/JS.--><link rel="stylesheet" href="/css/xcode.min.css?v=2025-09-29"><link rel="stylesheet" href="/css/post.css?v=2025-09-29"><!-- unified typography overrides for both home and post pages--><link rel="stylesheet" href="/css/typography.css?v=2025-09-29"><meta name="generator" content="Hexo 6.3.0"><link rel="alternate" href="/atom.xml" title="smallyu的博客（疯狂版）" type="application/atom+xml">
</head><body><div><div class="inner"><h1>如何开发一个比特币符文（Runes）协议</h1><div class="time">2025-07-15</div><div class="title-margin"></div><p>比特币符文（Runes）在技术原理上比较简单，很容易理解，实现 Runes 只需要用到比特币脚本中的 <code>OP_RETURN</code> 操作符。也是正因为简单，所以在技术特性上， Runes 相对干净一点，没有铭文和 RGB 那么复杂的链下状态。而 Runes 厉害的地方在于，能把这样一个生态给玩起来，虽然现在也凉了，但是我们不那么关心市场表现，从技术的角度，非常切实的看一下 Runes 是如何实现的，并且我们自己会一步一步开发一个简化的 Runes 协议出来。当我们真正理解了 Runes 协议，就可以直接看懂更复杂的项目，比如 Alkanes，一个在比特币上支持 WASM 智能合约的协议。</p>
<p>这篇文章的操作基于《<a href="/2025/07/10/%E6%AF%94%E7%89%B9%E5%B8%81%E8%84%9A%E6%9C%AC%E5%BC%80%E5%8F%91%E6%95%99%E7%A8%8B/">比特币脚本开发教程</a>》中的知识，如果缺少对比特币脚本的基本了解，可以先看一下基础教程。</p>
<h3 id="1-定义数据结构"><a href="#1-定义数据结构" class="headerlink" title="1. 定义数据结构"></a>1. 定义数据结构</h3><p>首先把 Runes 相关的操作定义为 json 格式的数据结构。用什么语言都可以，这里用的是 Rust。为了简化教程，可以省去一些实际中常用的元素，比如 <code>transfer</code> 的操作定义中，应该允许一次性转账给多个目标地址，但这里只有一个目标地址，没有用数组：</p>
<pre><code class="rust">struct IssueRune
&#123;
    op: u8,          // 固定为 0，代表发行
    symbol: String,  // Rune name
    supply: String,  // 发行总量
&#125;

struct TransferRune
&#123;
    op: u8,          // 固定为 1，代表转账
    id: u64,         // rune_id
    vout: u32,       // 转账目标
    amount: String,  // 转账金额
&#125;
</code></pre>
<p>这个结构定义中，唯一可能有点迷惑的是 <code>vout</code> 字段，一般我们要转账给一个目标地址的时候，会使用目标地址的字符串作为值，但是 Runes 协议中，为了节省链上空间，使用 <code>vout</code> 也就是当前这笔交易、第几个输出的索引作为 Runes 转账的目标。因为每一笔交易的第 0 个输出会包含 <code>OP_RETURN</code> 的值，转账操作的字符全部会放到 <code>OP_RETURN</code> 的内容中，所以在一笔交易里，<code>vout</code> 只用数字就足以表明转账的目标地址是哪个。交易数据的结构大概是这样：</p>
<pre><code class="json">tx &#123;
  vin:   [...]
  vout:  [
    &#123; vout: 0, scriptPubKey: OP_RETURN &lt;json数据&gt; &#125;,
    &#123; vout: 1, scriptPubKey: OP_0 &lt;转账地址1&gt; &#125;,
    &#123; vout: 2, scriptPubKey: OP_0 &lt;转账地址2&gt; &#125;
  ]
&#125;
</code></pre>
<p>接着给数据结构定义一下序列化函数，让结构体可以转变为 json 字符串：</p>
<pre><code class="rust">impl IssueRune
&#123;
    fn toJson(&amp;self) -&gt; String
    &#123;
        format!(
            &quot;&#123;&#123;\"op\":&#123;&#125;,\"symbol\":\"&#123;&#125;\",\"supply\":\"&#123;&#125;\"&#125;&#125;&quot;,
            self.op, self.symbol, self.supply
        )
    &#125;
&#125;

impl TransferRune
&#123;
    fn toJson(&amp;self) -&gt; String
    &#123;
        format!(
            &quot;&#123;&#123;\"op\":&#123;&#125;,\"id\":&#123;&#125;,\"vout\":&#123;&#125;,\"amount\":\"&#123;&#125;\"&#125;&#125;&quot;,
            self.op, self.id, self.vout, self.amount
        )
    &#125;
&#125;
</code></pre>
<h3 id="2-发行-Runes-代币"><a href="#2-发行-Runes-代币" class="headerlink" title="2. 发行 Runes 代币"></a>2. 发行 Runes 代币</h3><p>接下来的操作都基于本地启动的 regtest 节点，所以记得先启动起来，同时验证下有没有加载钱包、钱包里有没有余额。然后准备一下要发行 Rune 的 json 数据，比如这样，发行的 Rune 叫 <code>Doge</code>，总发行量 <code>1000</code> 个：</p>
<pre><code class="rust">fn issue_rune()
&#123;
    let issue = IssueRune 
    &#123;
        op: 0,
        symbol: &quot;Doge&quot;.to_string(),
        supply: &quot;1000&quot;.to_string(),
    &#125;;
    println!(&quot;Issue Doge JSON: &#123;&#125;&quot;, issue.toJson());
&#125;
</code></pre>
<p>运行这个函数，就会得到这样的输出，后面的 json 数据很重要，我们稍后会把这个数据发送到链上：</p>
<pre><code class="bash">Issue Doge JSON: &#123;&quot;op&quot;:0,&quot;symbol&quot;:&quot;Doge&quot;,&quot;supply&quot;:&quot;1000&quot;&#125;
</code></pre>
<p>然后运行这个命令行，把 json 数据转变为 16进制字符串：</p>
<pre><code class="bash">echo -n &quot;&#123;&quot;op&quot;:0,&quot;symbol&quot;:&quot;Doge&quot;,&quot;supply&quot;:&quot;1000&quot;&#125;&quot; | xxd -p -c 999
</code></pre>
<p>我得到了这样的输出：</p>
<pre><code class="bash">7b6f703a302c73796d626f6c3a446f67652c737570706c793a313030307d
</code></pre>
<p>这就是会放到 <code>OP_RETURN</code> 后面、用来上链的数据。注意 <code>OP_RETURN</code> 最多支持 80 个字节，所以这个数据不能太长。</p>
<p>接着查看并挑一笔未花费的输出，因为 Runes 所有的操作都必须绑定到 UTXO 上。用这个命令查看你的钱包有哪些 UTXO 可用，然后挑一个你喜欢的：</p>
<pre><code class="bash">bitcoin-cli -datadir=./ -regtest listunspent
</code></pre>
<p>比如我要用的 UTXO 是这样：</p>
<pre><code class="json">&#123;
  &quot;txid&quot;: &quot;8bfd524e9fc150dab11289d7e6d07860b2b5d6acb54b278a5dc1d1d7631bc8fa&quot;,
  &quot;vout&quot;: 0,
  &quot;address&quot;: &quot;bcrt1q6c8d9vw62rdee72xcqx3d97w8qh8mfg8ky8zjw&quot;,
  &quot;amount&quot;: 50.00000000,
  // ...
&#125;
</code></pre>
<p>然后生成一个找零地址，用来接收比特币余额，这里用了 legecy 格式的地址，这个不是强制的，用 SegWit 的地址也不影响：</p>
<pre><code class="bash">bitcoin-cli -datadir=./ getrawchangeaddress legacy
</code></pre>
<p>我生成的地址是 <code>n4Ybvvzm9vRQepuMpXBnTWWbYuTgsPSZCV</code>，接下来可以用这个地址构建交易了：</p>
<pre><code class="bash">bitcoin-cli -datadir=./ createrawtransaction \
  &#39;[&#123;&quot;txid&quot;:&quot;8bfd524e9fc150dab11289d7e6d07860b2b5d6acb54b278a5dc1d1d7631bc8fa&quot;,&quot;vout&quot;:0&#125;]&#39; \
  &#39;[&#123;&quot;data&quot;:&quot;7b6f703a302c73796d626f6c3a446f67652c737570706c793a313030307d&quot;&#125;,&#123;&quot;n4Ybvvzm9vRQepuMpXBnTWWbYuTgsPSZCV&quot;:49.99&#125;]&#39;
</code></pre>
<p>注意这个命令给找零地址的金额为 49.99，这种操作是不可以直接在主网使用的，需要精确计算余额和手续费的差值，然后给找零地址，不然会有很大的资金损失。这里只是懒得计算精确值。</p>
<p>生成交易数据后，对交易进行签名：</p>
<pre><code class="bash">bitcoin-cli -datadir=./ signrawtransactionwithwallet 0200000001fac81b63d7d1c15d8a274bb5acd6b5b26078d0e6d78912b1da50c19f4e52fd8b0000000000fdffffff020000000000000000206a1e7b6f703a302c73796d626f6c3a446f67652c737570706c793a313030307dc0aff629010000001976a914fc9ab9cd801c625c9fe323fe669e6a3e362eed8088ac00000000
</code></pre>
<p>发送签名后的交易到链上：</p>
<pre><code class="bash">bitcoin-cli -datadir=./ sendrawtransaction 02000000000101fac81b63d7d1c15d8a274bb5acd6b5b26078d0e6d78912b1da50c19f4e52fd8b0000000000fdffffff020000000000000000206a1e7b6f703a302c73796d626f6c3a446f67652c737570706c793a313030307dc0aff629010000001976a914fc9ab9cd801c625c9fe323fe669e6a3e362eed8088ac02473044022004a2553cc5348dd4521c093149b0ba5e5603fe4134d06a455e12abeac097ea19022076e72632b2488e1316e54559ed733b37de9ce7fd04119e78a59546a3d2c1faea0121020b396a9dfa1655feef066fe03b403d3e4bdee41ef9b26551497c0921acbf6bc100000000
</code></pre>
<p>要留意这个命令会输出一个 txid，这个 txid 比较重要，我们后续会从这个 txid 来转出 Doge 代币，所以要记得留下这个 txid 的记录，我的交易哈希是：<code>e2061d0b8b2f98ee47ba6564c1e7409872432354c7617d278fe0e8c4485ff04a</code>。挖一个区块来确认交易：</p>
<pre><code class="bash">bitcoin-cli -datadir=./ generatetoaddress 1 bcrt1q6c8d9vw62rdee72xcqx3d97w8qh8mfg8ky8zjw
</code></pre>
<p>如果一切顺利，交易数据就应该已经上链了。那么链下的解析器在拿到这笔交易后，会看到发行 Rune 的操作，并且解析出来。如果想确认下 <code>OP_RETURN</code> 的数据是不是写对了，可以解码一下刚才广播的交易详情：</p>
<pre><code class="bash">bitcoin-cli -datadir=./ decoderawtransaction 02000000000101fac81b63d7d1c15d8a274bb5acd6b5b26078d0e6d78912b1da50c19f4e52fd8b0000000000fdffffff020000000000000000206a1e7b6f703a302c73796d626f6c3a446f67652c737570706c793a313030307dc0aff629010000001976a914fc9ab9cd801c625c9fe323fe669e6a3e362eed8088ac02473044022004a2553cc5348dd4521c093149b0ba5e5603fe4134d06a455e12abeac097ea19022076e72632b2488e1316e54559ed733b37de9ce7fd04119e78a59546a3d2c1faea0121020b396a9dfa1655feef066fe03b403d3e4bdee41ef9b26551497c0921acbf6bc100000000
</code></pre>
<p>输出的结果是这样：</p>
<pre><code class="json">&quot;vout&quot;: [
    &#123;
      &quot;value&quot;: 0.00000000,
      &quot;n&quot;: 0,
      &quot;scriptPubKey&quot;: &#123;
        &quot;asm&quot;: &quot;OP_RETURN 7b6f703a302c73796d626f6c3a446f67652c737570706c793a313030307d&quot;,
        // ...
      &#125;
    &#125;,
    &#123;
      &quot;value&quot;: 49.99000000,
      &quot;n&quot;: 1,
      &quot;scriptPubKey&quot;: &#123; //... &#125;
    &#125;
  ]
</code></pre>
<p>很明显看到了在第 0 个输出中，有 <code>OP_RETURN 十六进制数据</code> 的内容，如果还是不放心，可以 decode 一下 16进制字符串：</p>
<pre><code class="bash">echo -n &quot;7b6f703a302c73796d626f6c3a446f67652c737570706c793a313030307d&quot; | xxd -r -p
</code></pre>
<p>应该得到：</p>
<pre><code class="bash">&#123;op:0,symbol:Doge,supply:1000&#125;
</code></pre>
<h3 id="3-转账-Runes-代币"><a href="#3-转账-Runes-代币" class="headerlink" title="3. 转账 Runes 代币"></a>3. 转账 Runes 代币</h3><p>刚才创建了 <code>Doge</code> 代币，发行量是 <code>1000</code>，我们接下来通过一笔转账交易，来转出这 1000 个 Doge。</p>
<p>首先得计算一下 rune_id，也就是我们刚才发行的 <code>Doge</code> 的唯一 ID 是什么，因为 Symbol 字符串是有可能重复的，而且占用字符空间也多，一般会做一些工程上的折中，比如对 txid 按照字节反序，然后取前 8 字节，得到一个 u64 长度的数字，像这样：</p>
<pre><code class="rust">fn calc_run_idby_txid()
&#123;
    let txid = &quot;e2061d0b8b2f98ee47ba6564c1e7409872432354c7617d278fe0e8c4485ff04a&quot;.to_string();
    // 按字节反序，然后取前 8 字节
    let mut bytes = hex::decode(txid).unwrap();
    bytes.reverse();
    let run_id = u64::from_le_bytes(bytes[0..8].try_into().unwrap());
    println!(&quot;Run ID: &#123;&#125;&quot;, run_id);
&#125;
</code></pre>
<p>这个函数运行后会得到 <code>10367542271932362826</code>，我们把这个数字作为 rune_id，去构建转账 rune 需要的 json 数据：</p>
<pre><code class="rust">fn transfer_rune()
&#123;
    let transfer = TransferRune
    &#123;
        op: 1,
        id: 10367542271932362826,
        vout: 1,
        amount: &quot;1000&quot;.to_string(),
    &#125;;
    println!(&quot;Transfer Rune JSON: &#123;&#125;&quot;, transfer.toJson());
&#125;
</code></pre>
<p>这个参数里要留意 <code>vout</code> 的值，它是接下来构建交易的时候，要转出到某个地址的 vout 的索引，和创建代币时候的交易没有任何关系。代码运行后得到这样的结果：</p>
<pre><code class="bash">Transfer Doge JSON: &#123;&quot;op&quot;:1,&quot;id&quot;:10367542271932362826,&quot;vout&quot;:1,&quot;amount&quot;:&quot;1000&quot;&#125;
</code></pre>
<p>接下来就可以重复之前的步骤，把 json 转为 16进制字符串：</p>
<pre><code class="bash">echo -n &quot;&#123;&quot;op&quot;:1,&quot;id&quot;:10367542271932362826,&quot;vout&quot;:1,&quot;amount&quot;:&quot;1000&quot;&#125;&quot; | xxd -p -c 999
</code></pre>
<p>我得到 <code>7b6f703a312c69643a31303336373534323237313933323336323832362c766f75743a312c616d6f756e743a313030307d</code>。</p>
<p>创建一个新地址用于接收 Doge：</p>
<pre><code class="bash">bitcoin-cli -datadir=./ getnewaddress
</code></pre>
<p>我的新地址是：<code>bcrt1qc250507tws9z9wkurfcv3jue2nls6npzaqt7ka</code>。</p>
<p>利用刚才得到的参数，组装一笔转账 Doge 的交易：</p>
<pre><code class="bash">bitcoin-cli -datadir=./ createrawtransaction \
&#39;[&#123;&quot;txid&quot;:&quot;e2061d0b8b2f98ee47ba6564c1e7409872432354c7617d278fe0e8c4485ff04a&quot;,&quot;vout&quot;:1&#125;]&#39; \
&#39;[&#123;&quot;data&quot;:&quot;7b226f70223a312c226964223a31303336373534323237313933323336323832362c22766f7574223a312c22616d6f756e74223a2231303030227d&quot;&#125;,&#123;&quot;bcrt1q0n2x7030x59j5ql9pp6mw0tps74ag0znrdp45r&quot;:0.01&#125;,&#123;&quot;n4Ybvvzm9vRQepuMpXBnTWWbYuTgsPSZCV&quot;:49.9798&#125;]&#39;
</code></pre>
<p>这里和之前的交易略有不同，包含两个输出，第一个是接收 Doge 的地址，金额随意，因为重点在于 Doge 余额，而不是 BTC 余额。第二个参数则是找零地址，我们前面的交易里用到过。</p>
<p>剩下的操作轻车熟路，对这笔交易签名、把交易广播出去、挖一个新区块让交易确认：</p>
<pre><code class="bash"># 对交易签名
bitcoin-cli -datadir=./ signrawtransactionwithwallet 02000000014af05f48c4e8e08f277d61c7542343729840e7c16465ba47ee982f8b0b1d06e20100000000fdffffff0300000000000000003d6a3b7b226f70223a312c226964223a31303336373534323237313933323336323832362c22766f7574223a312c22616d6f756e74223a2231303030227d40420f00000000001600147cd46f3e2f350b2a03e50875b73d6187abd43c53601fe729010000001976a914fc9ab9cd801c625c9fe323fe669e6a3e362eed8088ac00000000

# 广播交易
bitcoin-cli -datadir=./ sendrawtransaction 02000000014af05f48c4e8e08f277d61c7542343729840e7c16465ba47ee982f8b0b1d06e2010000006a47304402201437a9e83ae0c6842ebd9d355af9c7be1f6f2eaa070b5d7a6e02e13ca8f2d13102206d05753c428f526b8c6636022991591517cc7d7982badfc633519cb44715957a0121026f441e8156148d0bb4963edaff187873f9800a37bb5f0731256e38d632031283fdffffff0300000000000000003d6a3b7b226f70223a312c226964223a31303336373534323237313933323336323832362c22766f7574223a312c22616d6f756e74223a2231303030227d40420f00000000001600147cd46f3e2f350b2a03e50875b73d6187abd43c53601fe729010000001976a914fc9ab9cd801c625c9fe323fe669e6a3e362eed8088ac00000000
# 得到交易哈希：80709a25e5355d51ee6d7fb625c40e9c4c49b049afa3aca18aeaa03bc685c1f0

# 确认交易
bitcoin-cli -datadir=./ generatetoaddress 1 bcrt1q6c8d9vw62rdee72xcqx3d97w8qh8mfg8ky8zjw
</code></pre>
<p>到这一步，转账 Doge 的交易就完成并且上链了。</p>
<h3 id="4-解析-Runes-交易"><a href="#4-解析-Runes-交易" class="headerlink" title="4. 解析 Runes 交易"></a>4. 解析 Runes 交易</h3><p>你也许有点纳闷，这不就是发了两笔普通的比特币交易吗，只是放了两个 json 数据到交易上。Runes 就是这样，所有的操作，就在 <code>OP_RETURN</code> 允许的那 80 个字节的空间里完成。链上只记录 Runes 的操作，而不维护 Runes 的最终状态。包括有哪些代币、代币余额等信息，全部需要链下程序根据协议进行解析，状态也全部在链下程序维护。</p>
<p>我们首先可以通过已知的交易哈希，获取到这两笔交易的全部详情数据。如果交易哈希不是已知，可以监听扫描全部区块的全部交易，然后按照协议约定解析就行了。这里简化一点。</p>
<p>在 <code>Cargo.toml</code> 文件中导入依赖包：</p>
<pre><code class="rust">[dependencies]
hex              = &quot;0.4&quot;
bitcoin          = &quot;0.31&quot;          # Script &amp; consensus decode
bitcoincore-rpc  = &quot;0.18&quot;          # RPC client
serde            = &#123; version = &quot;1.0&quot;, features = [&quot;derive&quot;] &#125;
anyhow           = &quot;1.0&quot;
</code></pre>
<p>通过 RPC 查询节点上的交易数据：</p>
<pre><code class="rust">// 导入必要依赖
use bitcoin::&#123;Transaction, Txid&#125;;
use bitcoincore_rpc::&#123;Auth, Client, RpcApi&#125;;
use serde::Deserialize;
use std::path::PathBuf;
use std::str::FromStr;

fn parse_tx()
&#123;
    // 去启动比特币节点的数据目录下，找用来 rpc 鉴权的 cookie 文件
    let mut cookie = PathBuf::from(&quot;/Users/smallyu/work/github/bitcoin-regtest&quot;);
    cookie.push(&quot;regtest/.cookie&quot;);

    let rpc = Client::new(
        &quot;http://127.0.0.1:18443&quot;,
        Auth::CookieFile(cookie),
    ).unwrap();

    // 我们已知的交易哈希
    let issue_txid    = Txid::from_str(&quot;e2061d0b8b2f98ee47ba6564c1e7409872432354c7617d278fe0e8c4485ff04a&quot;).unwrap();
    let transfer_txid = Txid::from_str(&quot;80709a25e5355d51ee6d7fb625c40e9c4c49b049afa3aca18aeaa03bc685c1f0&quot;).unwrap();

    // 这里会得到完整的交易数据
    let issue_hex    = rpc.get_raw_transaction_hex(&amp;issue_txid, None).unwrap();
    let transfer_hex = rpc.get_raw_transaction_hex(&amp;transfer_txid, None).unwrap();

    println!(&quot;Issue Hex: &#123;&#125;&quot;, issue_hex);
    println!(&quot;Transfer Hex: &#123;&#125;&quot;, transfer_hex);

    // 调用函数来解析交易
    parse_op_return(issue_hex);
    parse_op_return(transfer_hex);
&#125;
</code></pre>
<p>这个函数在运行的时候，会从链上节点，查询出真实的已经上链的交易数据。接下来可以对这两笔交易的 Runes 操作做解析：</p>
<pre><code class="rust">fn parse_op_return(tx_str: String)
&#123;
    let tx: Transaction = bitcoin::consensus::deserialize(&amp;hex::decode(tx_str).unwrap()).unwrap();
    let script = tx.output[0].script_pubkey.clone();
    // OP_RETURN, DATA
    let mut iter = script.instructions();
    let mut op_return = iter.next();
    let mut data = iter.next();
    // 解析数据
    match op_return
    &#123;
        Some(Ok(op_return)) =&gt;
            &#123;
                match data
                &#123;
                    Some(Ok(data)) =&gt;
                        &#123;
                            match (data)
                            &#123;
                                bitcoin::blockdata::script::Instruction::PushBytes(bytes) =&gt;
                                    &#123;
                                        let json_str = std::str::from_utf8(bytes.as_ref()).unwrap();
                                        println!(&quot;&#123;&#125;&quot;, json_str);
                                    &#125;
                                _ =&gt; panic!(&quot;Expected OP_RETURN with data&quot;),
                            &#125;
                        &#125;
                    _ =&gt; panic!(&quot;No data found in OP_RETURN&quot;),
                &#125;
            &#125;
        _ =&gt; panic!(&quot;No OP_RETURN found in script&quot;),
    &#125;
&#125;
</code></pre>
<p>解析数据的代码部分，写法上嵌套有点多，只是因为我不喜欢用语法糖。想看起来更舒服的话，也可以在代码写法上做调整，变得更精简，不过无论写法如何，代码干的事情都一样。这个函数会从交易数据里，经过层层解析，打印出这样的结果：</p>
<pre><code class="bash">&#123;op:0,symbol:Doge,supply:1000&#125;
&#123;&quot;op&quot;:1,&quot;id&quot;:10367542271932362826,&quot;vout&quot;:1,&quot;amount&quot;:&quot;1000&quot;&#125;
</code></pre>
<p>这样，我们就看到了期望的两个 Runes 动作，第一个是发行 Doge，第二个是对 Doge 进行转账。</p>
<p>以上过程就是 Runes 协议比较核心的内容，剩下的只需要把链下程序扩充一下，记录 Runes 状态、根据 rune_id 关联 Rune 操作、储存和显示余额变更等信息就可以了。</p>
</div></div></body><!-- Defer non-critical scripts for better performance--><script defer src="/js/jquery.min.js?v=2025-09-29"></script><script defer src="/js/highlight.min.js?v=2025-09-29"></script><script defer src="/js/main.js?v=2025-09-29"></script><script defer src="/js/lightbox.js?v=2025-09-29"></script><script defer src="/js/bootstrap.min.js?v=2025-09-29"></script><script async="" src="https://www.googletagmanager.com/gtag/js?id=G-5JRBZ6P1W3"></script><script>window.dataLayer = window.dataLayer || [];
function gtag(){dataLayer.push(arguments);}
gtag('js', new Date());
gtag('config', 'G-5JRBZ6P1W3');</script></html>